{
  "_format": "hh-sol-artifact-1",
  "contractName": "DuelArena",
  "sourceName": "contracts/DuelArena.sol",
  "abi": [
    {
      "inputs": [],
      "name": "ReentrancyGuardReentrantCall",
      "type": "error"
    },
    {
      "anonymous": false,
      "inputs": [
        {
          "indexed": true,
          "internalType": "uint256",
          "name": "roomId",
          "type": "uint256"
        },
        {
          "indexed": true,
          "internalType": "address",
          "name": "winner",
          "type": "address"
        }
      ],
      "name": "GameFinished",
      "type": "event"
    },
    {
      "anonymous": false,
      "inputs": [
        {
          "indexed": true,
          "internalType": "uint256",
          "name": "roomId",
          "type": "uint256"
        },
        {
          "indexed": true,
          "internalType": "address",
          "name": "winner",
          "type": "address"
        },
        {
          "indexed": false,
          "internalType": "uint256",
          "name": "amount",
          "type": "uint256"
        }
      ],
      "name": "RewardClaimed",
      "type": "event"
    },
    {
      "anonymous": false,
      "inputs": [
        {
          "indexed": true,
          "internalType": "uint256",
          "name": "roomId",
          "type": "uint256"
        },
        {
          "indexed": true,
          "internalType": "address",
          "name": "creator",
          "type": "address"
        },
        {
          "indexed": false,
          "internalType": "uint256",
          "name": "betAmount",
          "type": "uint256"
        }
      ],
      "name": "RoomCreated",
      "type": "event"
    },
    {
      "anonymous": false,
      "inputs": [
        {
          "indexed": true,
          "internalType": "uint256",
          "name": "roomId",
          "type": "uint256"
        },
        {
          "indexed": true,
          "internalType": "address",
          "name": "challenger",
          "type": "address"
        },
        {
          "indexed": false,
          "internalType": "uint256",
          "name": "betAmount",
          "type": "uint256"
        }
      ],
      "name": "RoomJoined",
      "type": "event"
    },
    {
      "inputs": [],
      "name": "MAX_BET",
      "outputs": [
        {
          "internalType": "uint256",
          "name": "",
          "type": "uint256"
        }
      ],
      "stateMutability": "view",
      "type": "function"
    },
    {
      "inputs": [],
      "name": "MIN_BET",
      "outputs": [
        {
          "internalType": "uint256",
          "name": "",
          "type": "uint256"
        }
      ],
      "stateMutability": "view",
      "type": "function"
    },
    {
      "inputs": [],
      "name": "TREASURY_FEE_PERCENT",
      "outputs": [
        {
          "internalType": "uint256",
          "name": "",
          "type": "uint256"
        }
      ],
      "stateMutability": "view",
      "type": "function"
    },
    {
      "inputs": [
        {
          "internalType": "uint256",
          "name": "roomId",
          "type": "uint256"
        }
      ],
      "name": "claimReward",
      "outputs": [],
      "stateMutability": "nonpayable",
      "type": "function"
    },
    {
      "inputs": [
        {
          "internalType": "uint256",
          "name": "betAmount",
          "type": "uint256"
        }
      ],
      "name": "createRoom",
      "outputs": [],
      "stateMutability": "payable",
      "type": "function"
    },
    {
      "inputs": [
        {
          "internalType": "uint256",
          "name": "roomId",
          "type": "uint256"
        },
        {
          "internalType": "address",
          "name": "winner",
          "type": "address"
        }
      ],
      "name": "finishGame",
      "outputs": [],
      "stateMutability": "nonpayable",
      "type": "function"
    },
    {
      "inputs": [
        {
          "internalType": "uint256",
          "name": "roomId",
          "type": "uint256"
        }
      ],
      "name": "getRoom",
      "outputs": [
        {
          "components": [
            {
              "internalType": "address",
              "name": "creator",
              "type": "address"
            },
            {
              "internalType": "address",
              "name": "challenger",
              "type": "address"
            },
            {
              "internalType": "uint256",
              "name": "betAmount",
              "type": "uint256"
            },
            {
              "internalType": "bool",
              "name": "gameFinished",
              "type": "bool"
            },
            {
              "internalType": "address",
              "name": "winner",
              "type": "address"
            },
            {
              "internalType": "uint256",
              "name": "createdAt",
              "type": "uint256"
            },
            {
              "internalType": "bool",
              "name": "exists",
              "type": "bool"
            }
          ],
          "internalType": "struct DuelArena.Room",
          "name": "",
          "type": "tuple"
        }
      ],
      "stateMutability": "view",
      "type": "function"
    },
    {
      "inputs": [
        {
          "internalType": "uint256",
          "name": "roomId",
          "type": "uint256"
        }
      ],
      "name": "getRoomBetAmount",
      "outputs": [
        {
          "internalType": "uint256",
          "name": "",
          "type": "uint256"
        }
      ],
      "stateMutability": "view",
      "type": "function"
    },
    {
      "inputs": [
        {
          "internalType": "uint256",
          "name": "roomId",
          "type": "uint256"
        }
      ],
      "name": "joinRoom",
      "outputs": [],
      "stateMutability": "payable",
      "type": "function"
    },
    {
      "inputs": [],
      "name": "nextRoomId",
      "outputs": [
        {
          "internalType": "uint256",
          "name": "",
          "type": "uint256"
        }
      ],
      "stateMutability": "view",
      "type": "function"
    },
    {
      "inputs": [
        {
          "internalType": "uint256",
          "name": "",
          "type": "uint256"
        }
      ],
      "name": "rooms",
      "outputs": [
        {
          "internalType": "address",
          "name": "creator",
          "type": "address"
        },
        {
          "internalType": "address",
          "name": "challenger",
          "type": "address"
        },
        {
          "internalType": "uint256",
          "name": "betAmount",
          "type": "uint256"
        },
        {
          "internalType": "bool",
          "name": "gameFinished",
          "type": "bool"
        },
        {
          "internalType": "address",
          "name": "winner",
          "type": "address"
        },
        {
          "internalType": "uint256",
          "name": "createdAt",
          "type": "uint256"
        },
        {
          "internalType": "bool",
          "name": "exists",
          "type": "bool"
        }
      ],
      "stateMutability": "view",
      "type": "function"
    },
    {
      "inputs": [],
      "name": "withdrawTreasury",
      "outputs": [],
      "stateMutability": "nonpayable",
      "type": "function"
    },
    {
      "stateMutability": "payable",
      "type": "receive"
    }
  ],
  "bytecode": "0x608060405234801561001057600080fd5b506001600055610f2d806100256000396000f3fe6080604052600436106100ab5760003560e01c806377744fab1161006457806377744fab146102b05780637e95b523146102d05780639cfc4b45146102eb578063ae169a50146102fe578063bbba82571461031e578063e111703a1461033157600080fd5b806307a52cab14610102578063087d6beb1461012b578063166bab951461014b5780631bae0ac81461015b5780636540742f146102105780636d8a74cb1461022b57600080fd5b366100fd5760405162461bcd60e51b815260206004820181905260248201527f44697265637420455448207472616e7366657273206e6f7420616c6c6f77656460448201526064015b60405180910390fd5b600080fd5b34801561010e57600080fd5b5061011860025481565b6040519081526020015b60405180910390f35b34801561013757600080fd5b50610118610146366004610df4565b610346565b34801561015757600080fd5b505b005b34801561016757600080fd5b506101c9610176366004610df4565b60016020819052600091825260409091208054918101546002820154600383015460048401546005909401546001600160a01b039586169593841694929360ff8084169461010090940490911692911687565b604080516001600160a01b03988916815296881660208801528601949094529115156060850152909316608083015260a082019290925290151560c082015260e001610122565b34801561021c57600080fd5b5061011866038d7ea4c6800081565b34801561023757600080fd5b5061024b610246366004610df4565b610390565b604051610122919081516001600160a01b039081168252602080840151821690830152604080840151908301526060808401511515908301526080808401519091169082015260a0828101519082015260c09182015115159181019190915260e00190565b3480156102bc57600080fd5b506101596102cb366004610e0d565b61047a565b3480156102dc57600080fd5b506101186611c37937e0800081565b6101596102f9366004610df4565b6106b0565b34801561030a57600080fd5b50610159610319366004610df4565b610911565b61015961032c366004610df4565b610b83565b34801561033d57600080fd5b50610118600581565b600081815260016020526040812060050154829060ff166103795760405162461bcd60e51b81526004016100f490610e49565b505060009081526001602052604090206002015490565b6040805160e081018252600080825260208201819052918101829052606081018290526080810182905260a0810182905260c0810191909152600082815260016020526040902060050154829060ff166103fc5760405162461bcd60e51b81526004016100f490610e49565b5050600090815260016020818152604092839020835160e08101855281546001600160a01b03908116825293820154841692810192909252600281015493820193909352600383015460ff808216151560608401526101009091049092166080820152600483015460a082015260059092015416151560c082015290565b600082815260016020526040902060050154829060ff166104ad5760405162461bcd60e51b81526004016100f490610e49565b6000838152600160205260409020600381015460ff16156105085760405162461bcd60e51b815260206004820152601560248201527411d85b5948185b1c9958591e48199a5b9a5cda1959605a1b60448201526064016100f4565b60018101546001600160a01b03166105625760405162461bcd60e51b815260206004820152601b60248201527f526f6f6d206d75737420686176652061206368616c6c656e676572000000000060448201526064016100f4565b80546001600160a01b038481169116148061058c575060018101546001600160a01b038481169116145b6105e45760405162461bcd60e51b815260206004820152602360248201527f57696e6e6572206d757374206265206120706c6179657220696e2074686520726044820152626f6f6d60e81b60648201526084016100f4565b80546001600160a01b0316331480610608575060018101546001600160a01b031633145b6106545760405162461bcd60e51b815260206004820181905260248201527f4f6e6c7920706c61796572732063616e2066696e697368207468652067616d6560448201526064016100f4565b6003810180546001600160a01b03851661010081026001600160a81b03199092169190911760011790915560405185907fb7f35e624e036288272fbf3342c09219261ff29fdddd826989b289134e9ae53590600090a350505050565b600081815260016020526040902060050154819060ff166106e35760405162461bcd60e51b81526004016100f490610e49565b6106eb610dca565b6000828152600160208190526040909120908101546001600160a01b0316156107565760405162461bcd60e51b815260206004820152601d60248201527f526f6f6d20616c7265616479206861732061206368616c6c656e67657200000060448201526064016100f4565b8054336001600160a01b03909116036107b15760405162461bcd60e51b815260206004820152601960248201527f43616e6e6f74206a6f696e20796f7572206f776e20726f6f6d0000000000000060448201526064016100f4565b600381015460ff16156107fe5760405162461bcd60e51b815260206004820152601560248201527411d85b5948185b1c9958591e48199a5b9a5cda1959605a1b60448201526064016100f4565b8060020154341461085f5760405162461bcd60e51b815260206004820152602560248201527f42657420616d6f756e74206d757374206d6174636820726f6f6d2062657420616044820152641b5bdd5b9d60da1b60648201526084016100f4565b6002810154333110156108ab5760405162461bcd60e51b8152602060048201526014602482015273496e73756666696369656e742062616c616e636560601b60448201526064016100f4565b6001810180546001600160a01b03191633908117909155600282015460405185917f530d09111b31788e92c8203453a7624a899cda66357f576a4c7d4efb88453e8d916108fa91815260200190565b60405180910390a35061090d6001600055565b5050565b600081815260016020526040902060050154819060ff166109445760405162461bcd60e51b81526004016100f490610e49565b61094c610dca565b6000828152600160205260409020600381015460ff166109a65760405162461bcd60e51b815260206004820152601560248201527411d85b59481b9bdd08199a5b9a5cda1959081e595d605a1b60448201526064016100f4565b600381015461010090046001600160a01b03163314610a075760405162461bcd60e51b815260206004820152601c60248201527f4f6e6c792077696e6e65722063616e20636c61696d207265776172640000000060448201526064016100f4565b60018101546001600160a01b0316610a615760405162461bcd60e51b815260206004820152601b60248201527f526f6f6d206d75737420686176652061206368616c6c656e676572000000000060448201526064016100f4565b600081600201546002610a749190610e8c565b905060006064610a85600584610e8c565b610a8f9190610ea9565b90506000610a9d8284610ecb565b600385018054610100600160a81b0319169055604051909150600090339083908381818185875af1925050503d8060008114610af5576040519150601f19603f3d011682016040523d82523d6000602084013e610afa565b606091505b5050905080610b3d5760405162461bcd60e51b815260206004820152600f60248201526e151c985b9cd9995c8819985a5b1959608a1b60448201526064016100f4565b604051828152339088907f24b5efa61dd1cfc659205a97fb8ed868f3cb8c81922bab2b96423e5de1de2cb79060200160405180910390a3505050505061090d6001600055565b8066038d7ea4c68000811480610b9f57506611c37937e0800081145b610c025760405162461bcd60e51b815260206004820152602e60248201527f496e76616c69642062657420616d6f756e742e204d75737420626520302e303060448201526d06240dee440605c60606a408aa8960931b60648201526084016100f4565b610c0a610dca565b813414610c635760405162461bcd60e51b815260206004820152602160248201527f53656e7420616d6f756e74206d757374206d617463682062657420616d6f756e6044820152601d60fa1b60648201526084016100f4565b3331821115610cab5760405162461bcd60e51b8152602060048201526014602482015273496e73756666696369656e742062616c616e636560601b60448201526064016100f4565b6002805460009182610cbc83610ede565b909155506040805160e08101825233808252600060208084018281528486018a815260608601848152608087018581524260a08901908152600160c08a018181528c8952818852978b902099518a546001600160a01b039182166001600160a01b0319918216178c559651918b0180549282169290971691909117909555925160028901559051600388018054925190941661010002610100600160a81b0319911515919091166001600160a81b0319909216919091171790915551600485015590516005909301805493151560ff19909416939093179092559151868152929350909183917fac131287fe8417903d89f4eb472bc1d0da81641ef725569346dab6c2879a671791016108fa565b600260005403610ded57604051633ee5aeb560e01b815260040160405180910390fd5b6002600055565b600060208284031215610e0657600080fd5b5035919050565b60008060408385031215610e2057600080fd5b8235915060208301356001600160a01b0381168114610e3e57600080fd5b809150509250929050565b602080825260139082015272149bdbdb48191bd95cc81b9bdd08195e1a5cdd606a1b604082015260600190565b634e487b7160e01b600052601160045260246000fd5b8082028115828204841417610ea357610ea3610e76565b92915050565b600082610ec657634e487b7160e01b600052601260045260246000fd5b500490565b81810381811115610ea357610ea3610e76565b600060018201610ef057610ef0610e76565b506001019056fea2646970667358221220a465975ad57a03b5fa47f6f37fbea7d636522ee82e505c739ca178a55c79b11e64736f6c63430008180033",
  "linkReferences": {},
  "deployedLinkReferences": {}
}